{
  "contractName": "Projects",
  "abi": [
    {
      "constant": true,
      "inputs": [],
      "name": "projectRewardCount",
      "outputs": [
        {
          "name": "",
          "type": "uint256"
        }
      ],
      "payable": false,
      "stateMutability": "view",
      "type": "function"
    },
    {
      "constant": true,
      "inputs": [
        {
          "name": "",
          "type": "uint256"
        }
      ],
      "name": "projectStoriesList",
      "outputs": [
        {
          "name": "Description",
          "type": "string"
        },
        {
          "name": "RiskAndChallanges",
          "type": "string"
        },
        {
          "name": "VedioUrl",
          "type": "string"
        }
      ],
      "payable": false,
      "stateMutability": "view",
      "type": "function"
    },
    {
      "constant": true,
      "inputs": [
        {
          "name": "",
          "type": "uint256"
        }
      ],
      "name": "projectList",
      "outputs": [
        {
          "name": "Catagory",
          "type": "string"
        },
        {
          "name": "Title",
          "type": "string"
        },
        {
          "name": "Loucation",
          "type": "string"
        },
        {
          "name": "ProRewardCount",
          "type": "uint256"
        },
        {
          "name": "TotalGatherdAmount",
          "type": "uint256"
        },
        {
          "name": "voteCount",
          "type": "uint256"
        }
      ],
      "payable": false,
      "stateMutability": "view",
      "type": "function"
    },
    {
      "constant": true,
      "inputs": [
        {
          "name": "",
          "type": "uint256"
        }
      ],
      "name": "projectRewardList",
      "outputs": [
        {
          "name": "RewardId",
          "type": "uint256"
        },
        {
          "name": "projectId",
          "type": "uint256"
        },
        {
          "name": "RewardDescription",
          "type": "string"
        },
        {
          "name": "Title",
          "type": "string"
        },
        {
          "name": "PledgeAmount",
          "type": "string"
        },
        {
          "name": "EstimatedDilivery",
          "type": "string"
        },
        {
          "name": "ShippingDetails",
          "type": "string"
        }
      ],
      "payable": false,
      "stateMutability": "view",
      "type": "function"
    },
    {
      "constant": true,
      "inputs": [
        {
          "name": "",
          "type": "uint256"
        }
      ],
      "name": "DeployerAddress",
      "outputs": [
        {
          "name": "",
          "type": "address"
        }
      ],
      "payable": false,
      "stateMutability": "view",
      "type": "function"
    },
    {
      "constant": true,
      "inputs": [],
      "name": "projectsCount",
      "outputs": [
        {
          "name": "",
          "type": "uint256"
        }
      ],
      "payable": false,
      "stateMutability": "view",
      "type": "function"
    },
    {
      "constant": true,
      "inputs": [
        {
          "name": "",
          "type": "uint256"
        }
      ],
      "name": "projectDetailsList",
      "outputs": [
        {
          "name": "FundingDuration",
          "type": "string"
        },
        {
          "name": "FundingGoal",
          "type": "uint256"
        },
        {
          "name": "ImageUrl",
          "type": "string"
        },
        {
          "name": "ShortDescription",
          "type": "string"
        }
      ],
      "payable": false,
      "stateMutability": "view",
      "type": "function"
    },
    {
      "payable": true,
      "stateMutability": "payable",
      "type": "fallback"
    },
    {
      "anonymous": false,
      "inputs": [
        {
          "indexed": true,
          "name": "from",
          "type": "address"
        },
        {
          "indexed": true,
          "name": "to",
          "type": "address"
        },
        {
          "indexed": false,
          "name": "value",
          "type": "uint256"
        }
      ],
      "name": "Transfer",
      "type": "event"
    },
    {
      "constant": false,
      "inputs": [
        {
          "name": "_catagory",
          "type": "string"
        },
        {
          "name": "_title",
          "type": "string"
        },
        {
          "name": "_loucation",
          "type": "string"
        },
        {
          "name": "_fundingDuration",
          "type": "string"
        },
        {
          "name": "_fundingGoal",
          "type": "uint256"
        },
        {
          "name": "_imageUrl",
          "type": "string"
        },
        {
          "name": "_shortDesr",
          "type": "string"
        },
        {
          "name": "_storyDscr",
          "type": "string"
        },
        {
          "name": "_risk",
          "type": "string"
        },
        {
          "name": "_vedioUrl",
          "type": "string"
        }
      ],
      "name": "postProject",
      "outputs": [],
      "payable": false,
      "stateMutability": "nonpayable",
      "type": "function"
    },
    {
      "constant": false,
      "inputs": [
        {
          "name": "_id",
          "type": "uint256"
        }
      ],
      "name": "getProject",
      "outputs": [
        {
          "name": "",
          "type": "string"
        },
        {
          "name": "",
          "type": "string"
        },
        {
          "name": "",
          "type": "string"
        },
        {
          "name": "",
          "type": "uint256"
        },
        {
          "name": "",
          "type": "uint256"
        }
      ],
      "payable": false,
      "stateMutability": "nonpayable",
      "type": "function"
    },
    {
      "constant": false,
      "inputs": [
        {
          "name": "_id",
          "type": "uint256"
        }
      ],
      "name": "getProjectDetails",
      "outputs": [
        {
          "name": "",
          "type": "string"
        },
        {
          "name": "",
          "type": "uint256"
        },
        {
          "name": "",
          "type": "string"
        },
        {
          "name": "",
          "type": "string"
        }
      ],
      "payable": false,
      "stateMutability": "nonpayable",
      "type": "function"
    },
    {
      "constant": false,
      "inputs": [
        {
          "name": "_id",
          "type": "uint256"
        }
      ],
      "name": "getProjectStory",
      "outputs": [
        {
          "name": "",
          "type": "string"
        },
        {
          "name": "",
          "type": "string"
        },
        {
          "name": "",
          "type": "string"
        }
      ],
      "payable": false,
      "stateMutability": "nonpayable",
      "type": "function"
    },
    {
      "constant": false,
      "inputs": [],
      "name": "getCountProjects",
      "outputs": [
        {
          "name": "",
          "type": "uint256"
        }
      ],
      "payable": false,
      "stateMutability": "nonpayable",
      "type": "function"
    },
    {
      "constant": false,
      "inputs": [
        {
          "name": "_proId",
          "type": "uint256"
        },
        {
          "name": "_title",
          "type": "string"
        },
        {
          "name": "_plegeAmount",
          "type": "string"
        },
        {
          "name": "_descr",
          "type": "string"
        },
        {
          "name": "_estimatedDilivery",
          "type": "string"
        },
        {
          "name": "_shippingDetails",
          "type": "string"
        }
      ],
      "name": "setReward",
      "outputs": [],
      "payable": false,
      "stateMutability": "nonpayable",
      "type": "function"
    },
    {
      "constant": false,
      "inputs": [
        {
          "name": "_id",
          "type": "uint256"
        }
      ],
      "name": "getReward",
      "outputs": [
        {
          "name": "",
          "type": "string"
        },
        {
          "name": "",
          "type": "string"
        },
        {
          "name": "",
          "type": "string"
        },
        {
          "name": "",
          "type": "string"
        },
        {
          "name": "",
          "type": "string"
        }
      ],
      "payable": false,
      "stateMutability": "nonpayable",
      "type": "function"
    },
    {
      "constant": false,
      "inputs": [
        {
          "name": "proId",
          "type": "uint256"
        }
      ],
      "name": "getCountReward",
      "outputs": [
        {
          "name": "",
          "type": "uint256"
        }
      ],
      "payable": false,
      "stateMutability": "nonpayable",
      "type": "function"
    },
    {
      "constant": false,
      "inputs": [
        {
          "name": "proId",
          "type": "uint256"
        }
      ],
      "name": "VoteProject",
      "outputs": [],
      "payable": false,
      "stateMutability": "nonpayable",
      "type": "function"
    }
  ],
  "bytecode": "0x6060604052600080556000600155341561001857600080fd5b6124b1806100276000396000f3006060604052600436106100e6576000357c0100000000000000000000000000000000000000000000000000000000900463ffffffff16806304d5f46d146101235780631c4b774b1461014c5780634b561c38146103985780635a5b0abd146105635780635f8439e31461059a57806360570b2e146107155780638a7d3c5f146108f55780638ba1ce9b14610918578063aaf07a8014610b96578063aecb054614610e81578063b141fef814610ff5578063c73b302e14611058578063e2e06bc814611081578063e878fda0146110aa578063f0f3f2c81461121c578063f2e421021461139e575b6000349050806002600080548152602001908152602001600020600401540160026000805481526020019081526020016000206004018190555050005b341561012e57600080fd5b610136611570565b6040518082815260200191505060405180910390f35b341561015757600080fd5b61016d6004808035906020019091905050611576565b60405180806020018060200180602001806020018060200186810386528b818151815260200191508051906020019080838360005b838110156101bd5780820151818401526020810190506101a2565b50505050905090810190601f1680156101ea5780820380516001836020036101000a031916815260200191505b5086810385528a818151815260200191508051906020019080838360005b83811015610223578082015181840152602081019050610208565b50505050905090810190601f1680156102505780820380516001836020036101000a031916815260200191505b50868103845289818151815260200191508051906020019080838360005b8381101561028957808201518184015260208101905061026e565b50505050905090810190601f1680156102b65780820380516001836020036101000a031916815260200191505b50868103835288818151815260200191508051906020019080838360005b838110156102ef5780820151818401526020810190506102d4565b50505050905090810190601f16801561031c5780820380516001836020036101000a031916815260200191505b50868103825287818151815260200191508051906020019080838360005b8381101561035557808201518184015260208101905061033a565b50505050905090810190601f1680156103825780820380516001836020036101000a031916815260200191505b509a505050505050505050505060405180910390f35b34156103a357600080fd5b6103b9600480803590602001909190505061192b565b6040518080602001806020018060200184810384528781815460018160011615610100020316600290048152602001915080546001816001161561010002031660029004801561044a5780601f1061041f5761010080835404028352916020019161044a565b820191906000526020600020905b81548152906001019060200180831161042d57829003601f168201915b50508481038352868181546001816001161561010002031660029004815260200191508054600181600116156101000203166002900480156104cd5780601f106104a2576101008083540402835291602001916104cd565b820191906000526020600020905b8154815290600101906020018083116104b057829003601f168201915b50508481038252858181546001816001161561010002031660029004815260200191508054600181600116156101000203166002900480156105505780601f1061052557610100808354040283529160200191610550565b820191906000526020600020905b81548152906001019060200180831161053357829003601f168201915b5050965050505050505060405180910390f35b341561056e57600080fd5b6105846004808035906020019091905050611952565b6040518082815260200191505060405180910390f35b34156105a557600080fd5b6105bb6004808035906020019091905050611960565b60405180806020018581526020018060200180602001848103845288818151815260200191508051906020019080838360005b838110156106095780820151818401526020810190506105ee565b50505050905090810190601f1680156106365780820380516001836020036101000a031916815260200191505b50848103835286818151815260200191508051906020019080838360005b8381101561066f578082015181840152602081019050610654565b50505050905090810190601f16801561069c5780820380516001836020036101000a031916815260200191505b50848103825285818151815260200191508051906020019080838360005b838110156106d55780820151818401526020810190506106ba565b50505050905090810190601f1680156107025780820380516001836020036101000a031916815260200191505b5097505050505050505060405180910390f35b341561072057600080fd5b6107366004808035906020019091905050611bb6565b6040518080602001806020018060200187815260200186815260200185815260200184810384528a8181546001816001161561010002031660029004815260200191508054600181600116156101000203166002900480156107d95780601f106107ae576101008083540402835291602001916107d9565b820191906000526020600020905b8154815290600101906020018083116107bc57829003601f168201915b505084810383528981815460018160011615610100020316600290048152602001915080546001816001161561010002031660029004801561085c5780601f106108315761010080835404028352916020019161085c565b820191906000526020600020905b81548152906001019060200180831161083f57829003601f168201915b50508481038252888181546001816001161561010002031660029004815260200191508054600181600116156101000203166002900480156108df5780601f106108b4576101008083540402835291602001916108df565b820191906000526020600020905b8154815290600101906020018083116108c257829003601f168201915b5050995050505050505050505060405180910390f35b341561090057600080fd5b6109166004808035906020019091905050611bef565b005b341561092357600080fd5b610b94600480803590602001908201803590602001908080601f0160208091040260200160405190810160405280939291908181526020018383808284378201915050505050509190803590602001908201803590602001908080601f0160208091040260200160405190810160405280939291908181526020018383808284378201915050505050509190803590602001908201803590602001908080601f0160208091040260200160405190810160405280939291908181526020018383808284378201915050505050509190803590602001908201803590602001908080601f0160208091040260200160405190810160405280939291908181526020018383808284378201915050505050509190803590602001909190803590602001908201803590602001908080601f0160208091040260200160405190810160405280939291908181526020018383808284378201915050505050509190803590602001908201803590602001908080601f0160208091040260200160405190810160405280939291908181526020018383808284378201915050505050509190803590602001908201803590602001908080601f0160208091040260200160405190810160405280939291908181526020018383808284378201915050505050509190803590602001908201803590602001908080601f0160208091040260200160405190810160405280939291908181526020018383808284378201915050505050509190803590602001908201803590602001908080601f01602080910402602001604051908101604052809392919081815260200183838082843782019150505050505091905050611c2c565b005b3415610ba157600080fd5b610bb76004808035906020019091905050611d8a565b60405180888152602001878152602001806020018060200180602001806020018060200186810386528b818154600181600116156101000203166002900481526020019150805460018160011615610100020316600290048015610c5c5780601f10610c3157610100808354040283529160200191610c5c565b820191906000526020600020905b815481529060010190602001808311610c3f57829003601f168201915b505086810385528a818154600181600116156101000203166002900481526020019150805460018160011615610100020316600290048015610cdf5780601f10610cb457610100808354040283529160200191610cdf565b820191906000526020600020905b815481529060010190602001808311610cc257829003601f168201915b5050868103845289818154600181600116156101000203166002900481526020019150805460018160011615610100020316600290048015610d625780601f10610d3757610100808354040283529160200191610d62565b820191906000526020600020905b815481529060010190602001808311610d4557829003601f168201915b5050868103835288818154600181600116156101000203166002900481526020019150805460018160011615610100020316600290048015610de55780601f10610dba57610100808354040283529160200191610de5565b820191906000526020600020905b815481529060010190602001808311610dc857829003601f168201915b5050868103825287818154600181600116156101000203166002900481526020019150805460018160011615610100020316600290048015610e685780601f10610e3d57610100808354040283529160200191610e68565b820191906000526020600020905b815481529060010190602001808311610e4b57829003601f168201915b50509c5050505050505050505050505060405180910390f35b3415610e8c57600080fd5b610ea26004808035906020019091905050611dc7565b60405180806020018060200180602001848103845287818151815260200191508051906020019080838360005b83811015610eea578082015181840152602081019050610ecf565b50505050905090810190601f168015610f175780820380516001836020036101000a031916815260200191505b50848103835286818151815260200191508051906020019080838360005b83811015610f50578082015181840152602081019050610f35565b50505050905090810190601f168015610f7d5780820380516001836020036101000a031916815260200191505b50848103825285818151815260200191508051906020019080838360005b83811015610fb6578082015181840152602081019050610f9b565b50505050905090810190601f168015610fe35780820380516001836020036101000a031916815260200191505b50965050505050505060405180910390f35b341561100057600080fd5b6110166004808035906020019091905050612002565b604051808273ffffffffffffffffffffffffffffffffffffffff1673ffffffffffffffffffffffffffffffffffffffff16815260200191505060405180910390f35b341561106357600080fd5b61106b612037565b6040518082815260200191505060405180910390f35b341561108c57600080fd5b61109461203d565b6040518082815260200191505060405180910390f35b34156110b557600080fd5b61121a600480803590602001909190803590602001908201803590602001908080601f0160208091040260200160405190810160405280939291908181526020018383808284378201915050505050509190803590602001908201803590602001908080601f0160208091040260200160405190810160405280939291908181526020018383808284378201915050505050509190803590602001908201803590602001908080601f0160208091040260200160405190810160405280939291908181526020018383808284378201915050505050509190803590602001908201803590602001908080601f0160208091040260200160405190810160405280939291908181526020018383808284378201915050505050509190803590602001908201803590602001908080601f01602080910402602001604051908101604052809392919081815260200183838082843782019150505050505091905050612046565b005b341561122757600080fd5b61123d600480803590602001909190505061212d565b60405180806020018060200180602001868152602001858152602001848103845289818151815260200191508051906020019080838360005b83811015611291578082015181840152602081019050611276565b50505050905090810190601f1680156112be5780820380516001836020036101000a031916815260200191505b50848103835288818151815260200191508051906020019080838360005b838110156112f75780820151818401526020810190506112dc565b50505050905090810190601f1680156113245780820380516001836020036101000a031916815260200191505b50848103825287818151815260200191508051906020019080838360005b8381101561135d578082015181840152602081019050611342565b50505050905090810190601f16801561138a5780820380516001836020036101000a031916815260200191505b509850505050505050505060405180910390f35b34156113a957600080fd5b6113bf600480803590602001909190505061239f565b604051808060200185815260200180602001806020018481038452888181546001816001161561010002031660029004815260200191508054600181600116156101000203166002900480156114565780601f1061142b57610100808354040283529160200191611456565b820191906000526020600020905b81548152906001019060200180831161143957829003601f168201915b50508481038352868181546001816001161561010002031660029004815260200191508054600181600116156101000203166002900480156114d95780601f106114ae576101008083540402835291602001916114d9565b820191906000526020600020905b8154815290600101906020018083116114bc57829003601f168201915b505084810382528581815460018160011615610100020316600290048152602001915080546001816001161561010002031660029004801561155c5780601f106115315761010080835404028352916020019161155c565b820191906000526020600020905b81548152906001019060200180831161153f57829003601f168201915b505097505050505050505060405180910390f35b60015481565b61157e6123cc565b6115866123cc565b61158e6123cc565b6115966123cc565b61159e6123cc565b600560008781526020019081526020016000206003016005600088815260200190815260200160002060020160056000898152602001908152602001600020600401600560008a8152602001908152602001600020600501600560008b8152602001908152602001600020600601848054600181600116156101000203166002900480601f0160208091040260200160405190810160405280929190818152602001828054600181600116156101000203166002900480156116a15780601f10611676576101008083540402835291602001916116a1565b820191906000526020600020905b81548152906001019060200180831161168457829003601f168201915b50505050509450838054600181600116156101000203166002900480601f01602080910402602001604051908101604052809291908181526020018280546001816001161561010002031660029004801561173d5780601f106117125761010080835404028352916020019161173d565b820191906000526020600020905b81548152906001019060200180831161172057829003601f168201915b50505050509350828054600181600116156101000203166002900480601f0160208091040260200160405190810160405280929190818152602001828054600181600116156101000203166002900480156117d95780601f106117ae576101008083540402835291602001916117d9565b820191906000526020600020905b8154815290600101906020018083116117bc57829003601f168201915b50505050509250818054600181600116156101000203166002900480601f0160208091040260200160405190810160405280929190818152602001828054600181600116156101000203166002900480156118755780601f1061184a57610100808354040283529160200191611875565b820191906000526020600020905b81548152906001019060200180831161185857829003601f168201915b50505050509150808054600181600116156101000203166002900480601f0160208091040260200160405190810160405280929190818152602001828054600181600116156101000203166002900480156119115780601f106118e657610100808354040283529160200191611911565b820191906000526020600020905b8154815290600101906020018083116118f457829003601f168201915b505050505090509450945094509450945091939590929450565b60036020528060005260406000206000915090508060000190806001019080600201905083565b600080915060019050919050565b6119686123cc565b60006119726123cc565b61197a6123cc565b6004600086815260200190815260200160002060000160046000878152602001908152602001600020600101546004600088815260200190815260200160002060020160046000898152602001908152602001600020600301838054600181600116156101000203166002900480601f016020809104026020016040519081016040528092919081815260200182805460018160011615610100020316600290048015611a685780601f10611a3d57610100808354040283529160200191611a68565b820191906000526020600020905b815481529060010190602001808311611a4b57829003601f168201915b50505050509350818054600181600116156101000203166002900480601f016020809104026020016040519081016040528092919081815260200182805460018160011615610100020316600290048015611b045780601f10611ad957610100808354040283529160200191611b04565b820191906000526020600020905b815481529060010190602001808311611ae757829003601f168201915b50505050509150808054600181600116156101000203166002900480601f016020809104026020016040519081016040528092919081815260200182805460018160011615610100020316600290048015611ba05780601f10611b7557610100808354040283529160200191611ba0565b820191906000526020600020905b815481529060010190602001808311611b8357829003601f168201915b5050505050905093509350935093509193509193565b60026020528060005260406000206000915090508060000190806001019080600201908060030154908060040154908060050154905086565b6001600260008054815260200190815260200160002060050154016002600080548152602001908152602001600020600501819055506001905050565b60008060006002600080548152602001908152602001600020925060046000805481526020019081526020016000209150600360008054815260200190815260200160002090508c836000019080519060200190611c8b9291906123e0565b508b836001019080519060200190611ca49291906123e0565b508a836002019080519060200190611cbd9291906123e0565b5060008360030181905550600083600401819055506000836005018190555089826000019080519060200190611cf49291906123e0565b5088826001018190555087826002019080519060200190611d169291906123e0565b5086826003019080519060200190611d2f9291906123e0565b5085816000019080519060200190611d489291906123e0565b5084816001019080519060200190611d619291906123e0565b5083816002019080519060200190611d7a9291906123e0565b5050505050505050505050505050565b6005602052806000526040600020600091509050806000015490806001015490806002019080600301908060040190806005019080600601905087565b611dcf6123cc565b611dd76123cc565b611ddf6123cc565b600360008581526020019081526020016000206000016003600086815260200190815260200160002060010160036000878152602001908152602001600020600201828054600181600116156101000203166002900480601f016020809104026020016040519081016040528092919081815260200182805460018160011615610100020316600290048015611eb65780601f10611e8b57610100808354040283529160200191611eb6565b820191906000526020600020905b815481529060010190602001808311611e9957829003601f168201915b50505050509250818054600181600116156101000203166002900480601f016020809104026020016040519081016040528092919081815260200182805460018160011615610100020316600290048015611f525780601f10611f2757610100808354040283529160200191611f52565b820191906000526020600020905b815481529060010190602001808311611f3557829003601f168201915b50505050509150808054600181600116156101000203166002900480601f016020809104026020016040519081016040528092919081815260200182805460018160011615610100020316600290048015611fee5780601f10611fc357610100808354040283529160200191611fee565b820191906000526020600020905b815481529060010190602001808311611fd157829003601f168201915b505050505090509250925092509193909250565b60068160108110151561201157fe5b016000915054906101000a900473ffffffffffffffffffffffffffffffffffffffff1681565b60005481565b60008054905090565b60006001600260008081526020019081526020016000206003015401600260008081526020019081526020016000206003018190555060056000600154815260200190815260200160002090506001805401600181905550858160030190805190602001906120b69291906123e0565b50848160040190805190602001906120cf9291906123e0565b50828160050190805190602001906120e89291906123e0565b50818160060190805190602001906121019291906123e0565b50868160010181905550838160020190805190602001906121239291906123e0565b5050505050505050565b6121356123cc565b61213d6123cc565b6121456123cc565b600080600260008781526020019081526020016000206000016002600088815260200190815260200160002060010160026000898152602001908152602001600020600201600260008a815260200190815260200160002060040154600260008b815260200190815260200160002060050154848054600181600116156101000203166002900480601f01602080910402602001604051908101604052809291908181526020018280546001816001161561010002031660029004801561224d5780601f106122225761010080835404028352916020019161224d565b820191906000526020600020905b81548152906001019060200180831161223057829003601f168201915b50505050509450838054600181600116156101000203166002900480601f0160208091040260200160405190810160405280929190818152602001828054600181600116156101000203166002900480156122e95780601f106122be576101008083540402835291602001916122e9565b820191906000526020600020905b8154815290600101906020018083116122cc57829003601f168201915b50505050509350828054600181600116156101000203166002900480601f0160208091040260200160405190810160405280929190818152602001828054600181600116156101000203166002900480156123855780601f1061235a57610100808354040283529160200191612385565b820191906000526020600020905b81548152906001019060200180831161236857829003601f168201915b505050505092509450945094509450945091939590929450565b60046020528060005260406000206000915090508060000190806001015490806002019080600301905084565b602060405190810160405280600081525090565b828054600181600116156101000203166002900490600052602060002090601f016020900481019282601f1061242157805160ff191683800117855561244f565b8280016001018555821561244f579182015b8281111561244e578251825591602001919060010190612433565b5b50905061245c9190612460565b5090565b61248291905b8082111561247e576000816000905550600101612466565b5090565b905600a165627a7a723058203420b583434ddd1239b5b8d3379a7c071bdb330969be758547e7c42b0d57c8f70029",
  "source": "pragma solidity ^ 0.4 .4;\r\n\r\ncontract Projects {\r\n  event Transfer(address indexed from, address indexed to, uint value);\r\n\r\n  struct Reward {\r\n    uint RewardId;\r\n    uint projectId;\r\n    string RewardDescription;\r\n    string Title;\r\n    string PledgeAmount;\r\n    string EstimatedDilivery;\r\n    string ShippingDetails;\r\n\r\n  }\r\n\r\n  struct Story {\r\n    string Description;\r\n    string RiskAndChallanges;\r\n    string VedioUrl;\r\n  }\r\n\r\n  struct Project {\r\n    string Catagory;\r\n    string Title;\r\n    string Loucation;\r\n    uint ProRewardCount;\r\n    uint TotalGatherdAmount;\r\n    uint voteCount;\r\n\r\n  }\r\n  struct ProjectDetails {\r\n    string FundingDuration;\r\n    uint FundingGoal;\r\n    string ImageUrl;\r\n    string ShortDescription;\r\n\r\n  }\r\n  uint public projectsCount = 0;\r\n  uint public projectRewardCount = 0;\r\n  mapping(uint => Project) public projectList;\r\n  mapping(uint => Story) public projectStoriesList;\r\n  mapping(uint => ProjectDetails) public projectDetailsList;\r\n  mapping(uint => Reward) public projectRewardList;\r\n  address[16] public DeployerAddress;\r\n\r\n  function postProject(string _catagory, string _title, string _loucation, string _fundingDuration, uint _fundingGoal,\r\n    string _imageUrl, string _shortDesr, string _storyDscr, string _risk,\r\n    string _vedioUrl) {\r\n\r\n\r\n\r\n    var newproject = projectList[projectsCount];\r\n    var newDetails = projectDetailsList[projectsCount];\r\n    var newstory = projectStoriesList[projectsCount];\r\n\r\n    newproject.Catagory = _catagory;\r\n    newproject.Title = _title;\r\n    newproject.Loucation = _loucation;\r\n    newproject.ProRewardCount = 0;\r\n    newproject.TotalGatherdAmount = 0 ether;\r\n    newproject.voteCount = 0;\r\n\r\n    newDetails.FundingDuration =  _fundingDuration ;\r\n    newDetails.FundingGoal = _fundingGoal;\r\n    newDetails.ImageUrl = _imageUrl;\r\n    newDetails.ShortDescription = _shortDesr;\r\n\r\n    newstory.Description = _storyDscr;\r\n    newstory.RiskAndChallanges = _risk;\r\n    newstory.VedioUrl = _vedioUrl;\r\n\r\n\r\n\r\n\r\n  }\r\n\r\n  function getProject(uint _id) public returns(string, string, string, uint, uint) {\r\n    return (projectList[_id].Catagory, projectList[_id].Title, projectList[_id].Loucation, projectList[_id].TotalGatherdAmount, projectList[_id].voteCount);\r\n  }\r\n\r\n\r\n  function getProjectDetails(uint _id) public returns(string, uint, string, string) {\r\n\r\n    return (projectDetailsList[_id].FundingDuration, projectDetailsList[_id].FundingGoal, projectDetailsList[_id].ImageUrl, projectDetailsList[_id].ShortDescription);\r\n  }\r\n\r\n  function getProjectStory(uint _id) public returns(string, string, string) {\r\n    return (\r\n      projectStoriesList[_id].Description, projectStoriesList[_id].RiskAndChallanges,\r\n      projectStoriesList[_id].VedioUrl\r\n    );\r\n  }\r\n\r\n\r\n\r\n\r\n  function getCountProjects() public returns(uint) {\r\n    return projectsCount;\r\n  }\r\n\r\n  function setReward(uint _proId, string _title, string _plegeAmount, string _descr, string _estimatedDilivery, string _shippingDetails) {\r\n\r\n    projectList[0].ProRewardCount = projectList[0].ProRewardCount + 1;\r\n    var newreward = projectRewardList[projectRewardCount];\r\n    projectRewardCount = projectRewardCount + 1;\r\n    newreward.Title = _title;\r\n    newreward.PledgeAmount = _plegeAmount;\r\n    newreward.EstimatedDilivery = _estimatedDilivery;\r\n    newreward.ShippingDetails = _shippingDetails;\r\n    newreward.projectId = _proId;\r\n    newreward.RewardDescription = _descr;\r\n\r\n  }\r\n\r\n  function getReward(uint _id) public returns(string, string, string, string, string) {\r\n\r\n    return (projectRewardList[_id].Title, projectRewardList[_id].RewardDescription, projectRewardList[_id].PledgeAmount,\r\n      projectRewardList[_id].EstimatedDilivery, projectRewardList[_id].ShippingDetails\r\n    );\r\n\r\n  }\r\n\r\n  function getCountReward(uint proId) public returns(uint) {\r\n\r\nproId=0 ;\r\n    return 1;\r\n  }\r\n\r\n  function () payable {\r\n\r\n    uint amount = msg.value;\r\n    projectList[projectsCount].TotalGatherdAmount = projectList[projectsCount].TotalGatherdAmount + amount;\r\n\r\n\r\n  }\r\n\r\n  function VoteProject(uint proId) {\r\n    projectList[projectsCount].voteCount = projectList[projectsCount].voteCount + 1;\r\n    proId = 1;\r\n\r\n  }\r\n\r\n}\r\n\r\n",
  "sourcePath": "C:\\Users\\Faisal Naveed\\Desktop\\FYP\\openhouse\\contracts\\Projects.sol",
  "compiler": {
    "name": "solc",
    "version": "0.4.19+commit.c4cbbb05.Emscripten.clang"
  },
  "schemaVersion": "2.0.0",
  "updatedAt": "2018-06-22T04:22:00.687Z"
}